{
  "address": "0xcFDD4804c433DFda491Aa94Cf2204fF0617665e2",
  "abi": [
    {
      "inputs": [],
      "stateMutability": "nonpayable",
      "type": "constructor"
    },
    {
      "inputs": [],
      "name": "Condidate_Not_Exist",
      "type": "error"
    },
    {
      "inputs": [],
      "name": "No_Election_yet",
      "type": "error"
    },
    {
      "inputs": [],
      "name": "Not_Allowed",
      "type": "error"
    },
    {
      "inputs": [],
      "name": "Not_Found",
      "type": "error"
    },
    {
      "inputs": [],
      "name": "already_voted",
      "type": "error"
    },
    {
      "inputs": [],
      "name": "not_ended",
      "type": "error"
    },
    {
      "inputs": [],
      "name": "out_of_time",
      "type": "error"
    },
    {
      "inputs": [
        {
          "internalType": "address",
          "name": "addr",
          "type": "address"
        }
      ],
      "name": "addAdmin",
      "outputs": [],
      "stateMutability": "nonpayable",
      "type": "function"
    },
    {
      "inputs": [
        {
          "internalType": "string",
          "name": "condidateName",
          "type": "string"
        },
        {
          "internalType": "string",
          "name": "description",
          "type": "string"
        },
        {
          "internalType": "string",
          "name": "party",
          "type": "string"
        }
      ],
      "name": "addCondidate",
      "outputs": [],
      "stateMutability": "nonpayable",
      "type": "function"
    },
    {
      "inputs": [
        {
          "internalType": "uint256",
          "name": "interval",
          "type": "uint256"
        },
        {
          "internalType": "string[4]",
          "name": "condidates",
          "type": "string[4]"
        },
        {
          "internalType": "string",
          "name": "title",
          "type": "string"
        },
        {
          "internalType": "string",
          "name": "description",
          "type": "string"
        }
      ],
      "name": "addElection",
      "outputs": [],
      "stateMutability": "nonpayable",
      "type": "function"
    },
    {
      "inputs": [],
      "name": "getAdmins",
      "outputs": [
        {
          "internalType": "address[]",
          "name": "",
          "type": "address[]"
        }
      ],
      "stateMutability": "view",
      "type": "function"
    },
    {
      "inputs": [
        {
          "internalType": "string",
          "name": "name",
          "type": "string"
        }
      ],
      "name": "getCondidate",
      "outputs": [
        {
          "components": [
            {
              "internalType": "string",
              "name": "condidateName",
              "type": "string"
            },
            {
              "internalType": "string",
              "name": "description",
              "type": "string"
            },
            {
              "internalType": "string",
              "name": "party",
              "type": "string"
            },
            {
              "internalType": "uint256",
              "name": "nominationNumber",
              "type": "uint256"
            },
            {
              "internalType": "uint256",
              "name": "numberOfWins",
              "type": "uint256"
            }
          ],
          "internalType": "struct Structs.Candidate",
          "name": "",
          "type": "tuple"
        }
      ],
      "stateMutability": "view",
      "type": "function"
    },
    {
      "inputs": [],
      "name": "getCurrentElectionState",
      "outputs": [
        {
          "internalType": "uint256",
          "name": "",
          "type": "uint256"
        }
      ],
      "stateMutability": "view",
      "type": "function"
    },
    {
      "inputs": [
        {
          "internalType": "uint256",
          "name": "electionId",
          "type": "uint256"
        }
      ],
      "name": "getElectionById",
      "outputs": [
        {
          "internalType": "string",
          "name": "",
          "type": "string"
        },
        {
          "internalType": "uint256",
          "name": "",
          "type": "uint256"
        },
        {
          "internalType": "string",
          "name": "",
          "type": "string"
        },
        {
          "internalType": "string[]",
          "name": "",
          "type": "string[]"
        }
      ],
      "stateMutability": "view",
      "type": "function"
    },
    {
      "inputs": [],
      "name": "getElectionsCount",
      "outputs": [
        {
          "internalType": "uint256",
          "name": "",
          "type": "uint256"
        }
      ],
      "stateMutability": "view",
      "type": "function"
    },
    {
      "inputs": [],
      "name": "getOwner",
      "outputs": [
        {
          "internalType": "address",
          "name": "",
          "type": "address"
        }
      ],
      "stateMutability": "view",
      "type": "function"
    },
    {
      "inputs": [],
      "name": "getReminingTime",
      "outputs": [
        {
          "internalType": "uint256",
          "name": "",
          "type": "uint256"
        }
      ],
      "stateMutability": "view",
      "type": "function"
    },
    {
      "inputs": [
        {
          "internalType": "uint256",
          "name": "electionId",
          "type": "uint256"
        }
      ],
      "name": "getResultById",
      "outputs": [
        {
          "components": [
            {
              "internalType": "uint256",
              "name": "electionId",
              "type": "uint256"
            },
            {
              "internalType": "string",
              "name": "condidateName",
              "type": "string"
            },
            {
              "internalType": "uint256",
              "name": "voteCount",
              "type": "uint256"
            }
          ],
          "internalType": "struct Structs.Results",
          "name": "",
          "type": "tuple"
        }
      ],
      "stateMutability": "view",
      "type": "function"
    },
    {
      "inputs": [],
      "name": "getResults",
      "outputs": [
        {
          "components": [
            {
              "internalType": "uint256",
              "name": "electionId",
              "type": "uint256"
            },
            {
              "internalType": "string",
              "name": "condidateName",
              "type": "string"
            },
            {
              "internalType": "uint256",
              "name": "voteCount",
              "type": "uint256"
            }
          ],
          "internalType": "struct Structs.Results[]",
          "name": "",
          "type": "tuple[]"
        }
      ],
      "stateMutability": "view",
      "type": "function"
    },
    {
      "inputs": [
        {
          "internalType": "address",
          "name": "addr",
          "type": "address"
        }
      ],
      "name": "getUserHistory",
      "outputs": [
        {
          "components": [
            {
              "internalType": "uint256",
              "name": "electionId",
              "type": "uint256"
            },
            {
              "internalType": "string",
              "name": "candidateName",
              "type": "string"
            },
            {
              "internalType": "bool",
              "name": "isVoted",
              "type": "bool"
            }
          ],
          "internalType": "struct Structs.UserVotes[]",
          "name": "",
          "type": "tuple[]"
        }
      ],
      "stateMutability": "view",
      "type": "function"
    },
    {
      "inputs": [],
      "name": "initializeCondidates",
      "outputs": [],
      "stateMutability": "nonpayable",
      "type": "function"
    },
    {
      "inputs": [
        {
          "internalType": "address",
          "name": "addr",
          "type": "address"
        }
      ],
      "name": "isUserExist",
      "outputs": [
        {
          "internalType": "bool",
          "name": "",
          "type": "bool"
        }
      ],
      "stateMutability": "view",
      "type": "function"
    },
    {
      "inputs": [
        {
          "internalType": "uint256",
          "name": "electionId",
          "type": "uint256"
        }
      ],
      "name": "setResult",
      "outputs": [],
      "stateMutability": "nonpayable",
      "type": "function"
    },
    {
      "inputs": [
        {
          "internalType": "address",
          "name": "voter",
          "type": "address"
        },
        {
          "internalType": "uint256",
          "name": "electionId",
          "type": "uint256"
        },
        {
          "internalType": "string",
          "name": "candidateName",
          "type": "string"
        }
      ],
      "name": "vote",
      "outputs": [],
      "stateMutability": "nonpayable",
      "type": "function"
    }
  ],
  "transactionHash": "0xbffc3f800993340486007909920ad7cbc4896cda54e4bf0bab31bbccca3e25e5",
  "args": [],
  "numDeployments": 1,
  "solcInputHash": "8ea367d753d338104bfd8288c01d6327",
  "bytecode": "0x60a06040523480156200001157600080fd5b5060008060006101000a81548160ff021916908360018111156200003a576200003962000bcd565b5b02179055503373ffffffffffffffffffffffffffffffffffffffff1660808173ffffffffffffffffffffffffffffffffffffffff168152505060046080519080600181540180825580915050600190039060005260206000200160009091909190916101000a81548173ffffffffffffffffffffffffffffffffffffffff021916908373ffffffffffffffffffffffffffffffffffffffff1602179055506000600681905550620000f06200021d60201b60201c565b62000217603c60405180608001604052806040518060400160405280600481526020017f456c6f6e0000000000000000000000000000000000000000000000000000000081525081526020016040518060400160405280600481526020017f4a656666000000000000000000000000000000000000000000000000000000008152508152602001604051806020016040528060008152508152602001604051806020016040528060008152508152506040518060400160405280600181526020017f68000000000000000000000000000000000000000000000000000000000000008152506040518060400160405280600181526020017f62000000000000000000000000000000000000000000000000000000000000008152506200052b60201b60201c565b62000f7e565b620002b46040518060400160405280600581526020017f536174796100000000000000000000000000000000000000000000000000000081525060405180610100016040528060c5815260200162004b7960c591396040518060400160405280600981526020017f6d6963726f736f667400000000000000000000000000000000000000000000008152506200086f60201b60201c565b6200034a6040518060400160405280600481526020017f4a656666000000000000000000000000000000000000000000000000000000008152506040518060e0016040528060b681526020016200498760b691396040518060400160405280600681526020017f416d617a6f6e00000000000000000000000000000000000000000000000000008152506200086f60201b60201c565b620003e36040518060400160405280600481526020017f456c6f6e0000000000000000000000000000000000000000000000000000000081525060405180610160016040528061013c815260200162004a3d61013c91396040518060400160405280600681526020017f53706163655800000000000000000000000000000000000000000000000000008152506200086f60201b60201c565b6200047c6040518060400160405280600481526020017f4d61726b00000000000000000000000000000000000000000000000000000000815250604051806101400160405280610119815260200162004d0b61011991396040518060400160405280600481526020017f6d657461000000000000000000000000000000000000000000000000000000008152506200086f60201b60201c565b620005136040518060400160405280600581526020017f506176656c00000000000000000000000000000000000000000000000000000081525060405180610100016040528060cd815260200162004c3e60cd91396040518060400160405280600881526020017f74656c656772616d0000000000000000000000000000000000000000000000008152506200086f60201b60201c565b620005294262000a5160201b620020a51760201c565b565b60005b60048054905081101562000868576004818154811062000553576200055262000bfc565b5b9060005260206000200160009054906101000a900473ffffffffffffffffffffffffffffffffffffffff1673ffffffffffffffffffffffffffffffffffffffff163373ffffffffffffffffffffffffffffffffffffffff1614156200085257600160066000828254620005c7919062000c64565b92505081905550600654600a600060065481526020019081526020016000206000018190555082600a6000600654815260200190815260200160002060010190805190602001906200061b92919062000b1d565b5084600a600060065481526020019081526020016000206002018190555081600a6000600654815260200190815260200160002060030190805190602001906200066792919062000b1d565b506000600a600060065481526020019081526020016000206004018190555060005b600481101562000769576000858260048110620006ab57620006aa62000bfc565b5b6020020151604051602001620006c2919062000d65565b604051602081830303815290604052805190602001201415620006e55762000769565b600a6000600654815260200190815260200160002060050185826004811062000713576200071262000bfc565b5b60200201519080600181540180825580915050600190039060005260206000200160009091909190915090805190602001906200075292919062000b1d565b508080620007609062000d89565b91505062000689565b5060005b600a60006006548152602001908152602001600020600501805490508110156200081c576000600a60006006548152602001908152602001600020600601600a600060065481526020019081526020016000206005018381548110620007d857620007d762000bfc565b5b90600052602060002001604051620007f1919062000ee7565b9081526020016040518091039020600001819055508080620008139062000d89565b9150506200076d565b5060016000806101000a81548160ff0219169083600181111562000845576200084462000bcd565b5b0217905550426003819055505b80806200085f9062000d89565b9150506200052e565b5050505050565b60005b60048054905081101562000a4b576004818154811062000897576200089662000bfc565b5b9060005260206000200160009054906101000a900473ffffffffffffffffffffffffffffffffffffffff1673ffffffffffffffffffffffffffffffffffffffff163373ffffffffffffffffffffffffffffffffffffffff16141562000a35578360098560405162000909919062000f37565b908152602001604051809103902060000190805190602001906200092f92919062000b1d565b508260098560405162000943919062000f37565b908152602001604051809103902060010190805190602001906200096992919062000b1d565b50816009856040516200097d919062000f37565b90815260200160405180910390206002019080519060200190620009a392919062000b1d565b506000600985604051620009b8919062000f37565b9081526020016040518091039020600301819055506000600985604051620009e1919062000f37565b90815260200160405180910390206004018190555060078490806001815401808255809150506001900390600052602060002001600090919091909150908051906020019062000a3392919062000b1d565b505b808062000a429062000d89565b91505062000872565b50505050565b62000af18160405160240162000a68919062000f61565b6040516020818303038152906040527ff82c50f1000000000000000000000000000000000000000000000000000000007bffffffffffffffffffffffffffffffffffffffffffffffffffffffff19166020820180517bffffffffffffffffffffffffffffffffffffffffffffffffffffffff838183161783525050505062000af460201b60201c565b50565b60008151905060006a636f6e736f6c652e6c6f679050602083016000808483855afa5050505050565b82805462000b2b9062000e06565b90600052602060002090601f01602090048101928262000b4f576000855562000b9b565b82601f1062000b6a57805160ff191683800117855562000b9b565b8280016001018555821562000b9b579182015b8281111562000b9a57825182559160200191906001019062000b7d565b5b50905062000baa919062000bae565b5090565b5b8082111562000bc957600081600090555060010162000baf565b5090565b7f4e487b7100000000000000000000000000000000000000000000000000000000600052602160045260246000fd5b7f4e487b7100000000000000000000000000000000000000000000000000000000600052603260045260246000fd5b6000819050919050565b7f4e487b7100000000000000000000000000000000000000000000000000000000600052601160045260246000fd5b600062000c718262000c2b565b915062000c7e8362000c2b565b9250827fffffffffffffffffffffffffffffffffffffffffffffffffffffffffffffffff0382111562000cb65762000cb562000c35565b5b828201905092915050565b600081519050919050565b600082825260208201905092915050565b60005b8381101562000cfd57808201518184015260208101905062000ce0565b8381111562000d0d576000848401525b50505050565b6000601f19601f8301169050919050565b600062000d318262000cc1565b62000d3d818562000ccc565b935062000d4f81856020860162000cdd565b62000d5a8162000d13565b840191505092915050565b6000602082019050818103600083015262000d81818462000d24565b905092915050565b600062000d968262000c2b565b91507fffffffffffffffffffffffffffffffffffffffffffffffffffffffffffffffff82141562000dcc5762000dcb62000c35565b5b600182019050919050565b7f4e487b7100000000000000000000000000000000000000000000000000000000600052602260045260246000fd5b6000600282049050600182168062000e1f57607f821691505b6020821081141562000e365762000e3562000dd7565b5b50919050565b600081905092915050565b60008190508160005260206000209050919050565b6000815462000e6b8162000e06565b62000e77818662000e3c565b9450600182166000811462000e95576001811462000ea75762000ede565b60ff1983168652818601935062000ede565b62000eb28562000e47565b60005b8381101562000ed65781548189015260018201915060208101905062000eb5565b838801955050505b50505092915050565b600062000ef5828462000e5c565b915081905092915050565b600062000f0d8262000cc1565b62000f19818562000e3c565b935062000f2b81856020860162000cdd565b80840191505092915050565b600062000f45828462000f00565b915081905092915050565b62000f5b8162000c2b565b82525050565b600060208201905062000f78600083018462000f50565b92915050565b6080516139e662000fa16000396000818161107901526114e001526139e66000f3fe608060405234801561001057600080fd5b506004361061010b5760003560e01c806370480275116100a2578063a843f3bc11610071578063a843f3bc146102a6578063b1bb6ec3146102c2578063c6958b12146102e0578063ea46aa1814610313578063ef6113a21461032f5761010b565b80637048027514610234578063812448a514610250578063893d20e81461026c578063a11e92e91461028a5761010b565b80633426789d116100de5780633426789d146101be5780633a2f393c146101c85780634717f97c146101e65780634fb3d3b1146102045761010b565b80630255fa1e1461011057806308112bdf146101405780632b3b6f0a1461017057806331ae450b146101a0575b600080fd5b61012a60048036038101906101259190612553565b61034d565b604051610137919061259b565b60405180910390f35b61015a600480360381019061015591906125ec565b6103a6565b6040516101679190612711565b60405180910390f35b61018a60048036038101906101859190612868565b610479565b6040516101979190612935565b60405180910390f35b6101a8610726565b6040516101b59190612a15565b60405180910390f35b6101c66107b4565b005b6101d0610a88565b6040516101dd9190612a46565b60405180910390f35b6101ee610bd5565b6040516101fb9190612b73565b60405180910390f35b61021e60048036038101906102199190612553565b610dc9565b60405161022b9190612cb6565b60405180910390f35b61024e60048036038101906102499190612553565b611077565b005b61026a600480360381019061026591906125ec565b611162565b005b6102746114dc565b6040516102819190612ce7565b60405180910390f35b6102a4600480360381019061029f9190612dd6565b611504565b005b6102c060048036038101906102bb9190612e91565b61181e565b005b6102ca611ba6565b6040516102d79190612a46565b60405180910390f35b6102fa60048036038101906102f591906125ec565b611bf9565b60405161030a949392919061300c565b60405180910390f35b61032d60048036038101906103289190613066565b611ea5565b005b61033761206d565b6040516103449190612a46565b60405180910390f35b6000600860008373ffffffffffffffffffffffffffffffffffffffff1673ffffffffffffffffffffffffffffffffffffffff16815260200190815260200160002060000160149054906101000a900460ff169050919050565b6103ae61233e565b600b6000838152602001908152602001600020604051806060016040529081600082015481526020016001820180546103e69061313c565b80601f01602080910402602001604051908101604052809291908181526020018280546104129061313c565b801561045f5780601f106104345761010080835404028352916020019161045f565b820191906000526020600020905b81548152906001019060200180831161044257829003601f168201915b505050505081526020016002820154815250509050919050565b61048161235f565b81604051602001610492919061316e565b604051602081830303815290604052805190602001206009836040516104b891906131cc565b90815260200160405180910390206000016040516020016104d99190613278565b6040516020818303038152906040528051906020012014156106ef5760098260405161050591906131cc565b90815260200160405180910390206040518060a001604052908160008201805461052e9061313c565b80601f016020809104026020016040519081016040528092919081815260200182805461055a9061313c565b80156105a75780601f1061057c576101008083540402835291602001916105a7565b820191906000526020600020905b81548152906001019060200180831161058a57829003601f168201915b505050505081526020016001820180546105c09061313c565b80601f01602080910402602001604051908101604052809291908181526020018280546105ec9061313c565b80156106395780601f1061060e57610100808354040283529160200191610639565b820191906000526020600020905b81548152906001019060200180831161061c57829003601f168201915b505050505081526020016002820180546106529061313c565b80601f016020809104026020016040519081016040528092919081815260200182805461067e9061313c565b80156106cb5780601f106106a0576101008083540402835291602001916106cb565b820191906000526020600020905b8154815290600101906020018083116106ae57829003601f168201915b50505050508152602001600382015481526020016004820154815250509050610721565b6040517fe4b5ef1300000000000000000000000000000000000000000000000000000000815260040160405180910390fd5b919050565b606060048054806020026020016040519081016040528092919081815260200182805480156107aa57602002820191906000526020600020905b8160009054906101000a900473ffffffffffffffffffffffffffffffffffffffff1673ffffffffffffffffffffffffffffffffffffffff1681526020019060010190808311610760575b5050505050905090565b6108426040518060400160405280600581526020017f536174796100000000000000000000000000000000000000000000000000000081525060405180610100016040528060c5815260200161370660c591396040518060400160405280600981526020017f6d6963726f736f66740000000000000000000000000000000000000000000000815250611ea5565b6108cf6040518060400160405280600481526020017f4a656666000000000000000000000000000000000000000000000000000000008152506040518060e0016040528060b6815260200161351460b691396040518060400160405280600681526020017f416d617a6f6e0000000000000000000000000000000000000000000000000000815250611ea5565b61095f6040518060400160405280600481526020017f456c6f6e0000000000000000000000000000000000000000000000000000000081525060405180610160016040528061013c81526020016135ca61013c91396040518060400160405280600681526020017f5370616365580000000000000000000000000000000000000000000000000000815250611ea5565b6109ef6040518060400160405280600481526020017f4d61726b00000000000000000000000000000000000000000000000000000000815250604051806101400160405280610119815260200161389861011991396040518060400160405280600481526020017f6d65746100000000000000000000000000000000000000000000000000000000815250611ea5565b610a7d6040518060400160405280600581526020017f506176656c00000000000000000000000000000000000000000000000000000081525060405180610100016040528060cd81526020016137cb60cd91396040518060400160405280600881526020017f74656c656772616d000000000000000000000000000000000000000000000000815250611ea5565b610a86426120a5565b565b6000600a600060065481526020019081526020016000206002015460035442610ab191906132c9565b1015610b8f57610b0e6040518060400160405280601f81526020017f656c656374696f6e5b735f656c656374696f6e49645d2e696e74657276616c00815250600a600060065481526020019081526020016000206002015461213e565b610b866040518060400160405280601081526020017f0a626c6f636b2e74696d657374616d7000000000000000000000000000000000815250426040518060400160405280601081526020017f0a735f6c61737454696d655374616d70000000000000000000000000000000008152506003546121da565b60019050610bd2565b610bcd6040518060400160405280600d81526020017f6e6f70206974732077726f6e670000000000000000000000000000000000000081525061227c565b600090505b90565b6060600060065414610d945760006006549050600180811115610bfb57610bfa6132fd565b5b60008054906101000a900460ff166001811115610c1b57610c1a6132fd565b5b1415610c3157600181610c2e91906132c9565b90505b60008167ffffffffffffffff811115610c4d57610c4c61273d565b5b604051908082528060200260200182016040528015610c8657816020015b610c7361233e565b815260200190600190039081610c6b5790505b50905060005b82811015610d8957600b600082815260200190815260200160002060405180606001604052908160008201548152602001600182018054610ccc9061313c565b80601f0160208091040260200160405190810160405280929190818152602001828054610cf89061313c565b8015610d455780601f10610d1a57610100808354040283529160200191610d45565b820191906000526020600020905b815481529060010190602001808311610d2857829003601f168201915b50505050508152602001600282015481525050828281518110610d6b57610d6a61332c565b5b60200260200101819052508080610d819061335b565b915050610c8c565b508092505050610dc6565b6040517f95f58f6900000000000000000000000000000000000000000000000000000000815260040160405180910390fd5b90565b60606000600860008473ffffffffffffffffffffffffffffffffffffffff1673ffffffffffffffffffffffffffffffffffffffff16815260200190815260200160002060000160149054906101000a900460ff16156110705760005b600654811015610ebb57600860008573ffffffffffffffffffffffffffffffffffffffff1673ffffffffffffffffffffffffffffffffffffffff168152602001908152602001600020600101600082815260200190815260200160002060020160009054906101000a900460ff1615610ea857600182610ea591906133a4565b91505b8080610eb39061335b565b915050610e25565b5060008167ffffffffffffffff811115610ed857610ed761273d565b5b604051908082528060200260200182016040528015610f1157816020015b610efe61238e565b815260200190600190039081610ef65790505b50905060005b8281101561106557600860008673ffffffffffffffffffffffffffffffffffffffff1673ffffffffffffffffffffffffffffffffffffffff168152602001908152602001600020600101600082815260200190815260200160002060405180606001604052908160008201548152602001600182018054610f979061313c565b80601f0160208091040260200160405190810160405280929190818152602001828054610fc39061313c565b80156110105780601f10610fe557610100808354040283529160200191611010565b820191906000526020600020905b815481529060010190602001808311610ff357829003601f168201915b505050505081526020016002820160009054906101000a900460ff1615151515815250508282815181106110475761104661332c565b5b6020026020010181905250808061105d9061335b565b915050610f17565b508092505050611072565b505b919050565b7f000000000000000000000000000000000000000000000000000000000000000073ffffffffffffffffffffffffffffffffffffffff163373ffffffffffffffffffffffffffffffffffffffff16146110fc576040517fd035b5df00000000000000000000000000000000000000000000000000000000815260040160405180910390fd5b6004819080600181540180825580915050600190039060005260206000200160009091909190916101000a81548173ffffffffffffffffffffffffffffffffffffffff021916908373ffffffffffffffffffffffffffffffffffffffff16021790555050565b60005b6004805490508110156114d857600481815481106111865761118561332c565b5b9060005260206000200160009054906101000a900473ffffffffffffffffffffffffffffffffffffffff1673ffffffffffffffffffffffffffffffffffffffff163373ffffffffffffffffffffffffffffffffffffffff1614156114c557600a60006006548152602001908152602001600020600201546003544261120b91906132c9565b1180156112485750600180811115611226576112256132fd565b5b60008054906101000a900460ff166001811115611246576112456132fd565b5b145b1561149257600060038190555060008060006101000a81548160ff0219169083600181111561127a576112796132fd565b5b02179055506000805b600a60008581526020019081526020016000206005018054905081101561148b5781600a6000868152602001908152602001600020600601600a600087815260200190815260200160002060050183815481106112e3576112e261332c565b5b906000526020600020016040516112fa9190613479565b90815260200160405180910390206000015411156114785783600b600086815260200190815260200160002060000181905550600a600085815260200190815260200160002060050181815481106113555761135461332c565b5b90600052602060002001600b60008681526020019081526020016000206001019080546113819061313c565b61138c9291906123b1565b50600a6000858152602001908152602001600020600601600a600086815260200190815260200160002060050182815481106113cb576113ca61332c565b5b906000526020600020016040516113e29190613479565b908152602001604051809103902060000154600b600086815260200190815260200160002060020181905550600a6000858152602001908152602001600020600601600a6000868152602001908152602001600020600501828154811061144c5761144b61332c565b5b906000526020600020016040516114639190613479565b90815260200160405180910390206000015491505b80806114839061335b565b915050611283565b50506114c4565b6040517fd65dfa5100000000000000000000000000000000000000000000000000000000815260040160405180910390fd5b5b80806114d09061335b565b915050611165565b5050565b60007f0000000000000000000000000000000000000000000000000000000000000000905090565b60005b60048054905081101561181757600481815481106115285761152761332c565b5b9060005260206000200160009054906101000a900473ffffffffffffffffffffffffffffffffffffffff1673ffffffffffffffffffffffffffffffffffffffff163373ffffffffffffffffffffffffffffffffffffffff1614156118045760016006600082825461159991906133a4565b92505081905550600654600a600060065481526020019081526020016000206000018190555082600a6000600654815260200190815260200160002060010190805190602001906115eb92919061243e565b5084600a600060065481526020019081526020016000206002018190555081600a60006006548152602001908152602001600020600301908051906020019061163592919061243e565b506000600a600060065481526020019081526020016000206004018190555060005b60048110156117275760008582600481106116755761167461332c565b5b602002015160405160200161168a919061316e565b6040516020818303038152906040528051906020012014156116ab57611727565b600a600060065481526020019081526020016000206005018582600481106116d6576116d561332c565b5b602002015190806001815401808255809150506001900390600052602060002001600090919091909150908051906020019061171392919061243e565b50808061171f9061335b565b915050611657565b5060005b600a60006006548152602001908152602001600020600501805490508110156117d1576000600a60006006548152602001908152602001600020600601600a6000600654815260200190815260200160002060050183815481106117925761179161332c565b5b906000526020600020016040516117a99190613479565b90815260200160405180910390206000018190555080806117c99061335b565b91505061172b565b5060016000806101000a81548160ff021916908360018111156117f7576117f66132fd565b5b0217905550426003819055505b808061180f9061335b565b915050611507565b5050505050565b600180811115611831576118306132fd565b5b60008054906101000a900460ff166001811115611851576118506132fd565b5b1480156118825750600a60006006548152602001908152602001600020600201546003544261188091906132c9565b115b15611b6f57600860008473ffffffffffffffffffffffffffffffffffffffff1673ffffffffffffffffffffffffffffffffffffffff16815260200190815260200160002060000160149054906101000a900460ff16611a05576001600860008573ffffffffffffffffffffffffffffffffffffffff1673ffffffffffffffffffffffffffffffffffffffff16815260200190815260200160002060000160146101000a81548160ff02191690831515021790555082600860008573ffffffffffffffffffffffffffffffffffffffff1673ffffffffffffffffffffffffffffffffffffffff16815260200190815260200160002060000160006101000a81548173ffffffffffffffffffffffffffffffffffffffff021916908373ffffffffffffffffffffffffffffffffffffffff1602179055506001600a6000848152602001908152602001600020600601826040516119dd91906131cc565b908152602001604051809103902060000160008282546119fd91906133a4565b925050819055505b600860008473ffffffffffffffffffffffffffffffffffffffff1673ffffffffffffffffffffffffffffffffffffffff168152602001908152602001600020600101600083815260200190815260200160002060020160009054906101000a900460ff16611b385781600860008573ffffffffffffffffffffffffffffffffffffffff1673ffffffffffffffffffffffffffffffffffffffff16815260200190815260200160002060010160008481526020019081526020016000206000018190555080600860008573ffffffffffffffffffffffffffffffffffffffff1673ffffffffffffffffffffffffffffffffffffffff16815260200190815260200160002060010160008481526020019081526020016000206001019080519060200190611b3292919061243e565b50611b6a565b6040517fa6a59de300000000000000000000000000000000000000000000000000000000815260040160405180910390fd5b611ba1565b6040517f63c9561e00000000000000000000000000000000000000000000000000000000815260040160405180910390fd5b505050565b6000611be66040518060400160405280600c81526020017f735f656c656374696f6e4964000000000000000000000000000000000000000081525061227c565b611bf16006546120a5565b600654905090565b6060600060608084600a6000878152602001908152602001600020600001541415611e6c57600060035442611c2e91906132c9565b9050600a600087815260200190815260200160002060010181600a6000898152602001908152602001600020600301600a60008a8152602001908152602001600020600501838054611c7f9061313c565b80601f0160208091040260200160405190810160405280929190818152602001828054611cab9061313c565b8015611cf85780601f10611ccd57610100808354040283529160200191611cf8565b820191906000526020600020905b815481529060010190602001808311611cdb57829003601f168201915b50505050509350818054611d0b9061313c565b80601f0160208091040260200160405190810160405280929190818152602001828054611d379061313c565b8015611d845780601f10611d5957610100808354040283529160200191611d84565b820191906000526020600020905b815481529060010190602001808311611d6757829003601f168201915b5050505050915080805480602002602001604051908101604052809291908181526020016000905b82821015611e58578382906000526020600020018054611dcb9061313c565b80601f0160208091040260200160405190810160405280929190818152602001828054611df79061313c565b8015611e445780601f10611e1957610100808354040283529160200191611e44565b820191906000526020600020905b815481529060010190602001808311611e2757829003601f168201915b505050505081526020019060010190611dac565b505050509050945094509450945050611e9e565b6040517f0da83f1700000000000000000000000000000000000000000000000000000000815260040160405180910390fd5b9193509193565b60005b6004805490508110156120675760048181548110611ec957611ec861332c565b5b9060005260206000200160009054906101000a900473ffffffffffffffffffffffffffffffffffffffff1673ffffffffffffffffffffffffffffffffffffffff163373ffffffffffffffffffffffffffffffffffffffff1614156120545783600985604051611f3891906131cc565b90815260200160405180910390206000019080519060200190611f5c92919061243e565b5082600985604051611f6e91906131cc565b90815260200160405180910390206001019080519060200190611f9292919061243e565b5081600985604051611fa491906131cc565b90815260200160405180910390206002019080519060200190611fc892919061243e565b506000600985604051611fdb91906131cc565b908152602001604051809103902060030181905550600060098560405161200291906131cc565b90815260200160405180910390206004018190555060078490806001815401808255809150506001900390600052602060002001600090919091909150908051906020019061205292919061243e565b505b808061205f9061335b565b915050611ea8565b50505050565b60006003544261207d91906132c9565b600a60006006548152602001908152602001600020600201546120a091906132c9565b905090565b61213b816040516024016120b99190612a46565b6040516020818303038152906040527ff82c50f1000000000000000000000000000000000000000000000000000000007bffffffffffffffffffffffffffffffffffffffffffffffffffffffff19166020820180517bffffffffffffffffffffffffffffffffffffffffffffffffffffffff8381831617835250505050612315565b50565b6121d68282604051602401612154929190613490565b6040516020818303038152906040527fb60e72cc000000000000000000000000000000000000000000000000000000007bffffffffffffffffffffffffffffffffffffffffffffffffffffffff19166020820180517bffffffffffffffffffffffffffffffffffffffffffffffffffffffff8381831617835250505050612315565b5050565b612276848484846040516024016121f494939291906134c0565b6040516020818303038152906040527fc67ea9d1000000000000000000000000000000000000000000000000000000007bffffffffffffffffffffffffffffffffffffffffffffffffffffffff19166020820180517bffffffffffffffffffffffffffffffffffffffffffffffffffffffff8381831617835250505050612315565b50505050565b61231281604051602401612290919061316e565b6040516020818303038152906040527f41304fac000000000000000000000000000000000000000000000000000000007bffffffffffffffffffffffffffffffffffffffffffffffffffffffff19166020820180517bffffffffffffffffffffffffffffffffffffffffffffffffffffffff8381831617835250505050612315565b50565b60008151905060006a636f6e736f6c652e6c6f679050602083016000808483855afa5050505050565b60405180606001604052806000815260200160608152602001600081525090565b6040518060a0016040528060608152602001606081526020016060815260200160008152602001600081525090565b604051806060016040528060008152602001606081526020016000151581525090565b8280546123bd9061313c565b90600052602060002090601f0160209004810192826123df576000855561242d565b82601f106123f0578054855561242d565b8280016001018555821561242d57600052602060002091601f016020900482015b8281111561242c578254825591600101919060010190612411565b5b50905061243a91906124c4565b5090565b82805461244a9061313c565b90600052602060002090601f01602090048101928261246c57600085556124b3565b82601f1061248557805160ff19168380011785556124b3565b828001600101855582156124b3579182015b828111156124b2578251825591602001919060010190612497565b5b5090506124c091906124c4565b5090565b5b808211156124dd5760008160009055506001016124c5565b5090565b6000604051905090565b600080fd5b600080fd5b600073ffffffffffffffffffffffffffffffffffffffff82169050919050565b6000612520826124f5565b9050919050565b61253081612515565b811461253b57600080fd5b50565b60008135905061254d81612527565b92915050565b600060208284031215612569576125686124eb565b5b60006125778482850161253e565b91505092915050565b60008115159050919050565b61259581612580565b82525050565b60006020820190506125b0600083018461258c565b92915050565b6000819050919050565b6125c9816125b6565b81146125d457600080fd5b50565b6000813590506125e6816125c0565b92915050565b600060208284031215612602576126016124eb565b5b6000612610848285016125d7565b91505092915050565b612622816125b6565b82525050565b600081519050919050565b600082825260208201905092915050565b60005b83811015612662578082015181840152602081019050612647565b83811115612671576000848401525b50505050565b6000601f19601f8301169050919050565b600061269382612628565b61269d8185612633565b93506126ad818560208601612644565b6126b681612677565b840191505092915050565b60006060830160008301516126d96000860182612619565b50602083015184820360208601526126f18282612688565b91505060408301516127066040860182612619565b508091505092915050565b6000602082019050818103600083015261272b81846126c1565b905092915050565b600080fd5b600080fd5b7f4e487b7100000000000000000000000000000000000000000000000000000000600052604160045260246000fd5b61277582612677565b810181811067ffffffffffffffff821117156127945761279361273d565b5b80604052505050565b60006127a76124e1565b90506127b3828261276c565b919050565b600067ffffffffffffffff8211156127d3576127d261273d565b5b6127dc82612677565b9050602081019050919050565b82818337600083830152505050565b600061280b612806846127b8565b61279d565b90508281526020810184848401111561282757612826612738565b5b6128328482856127e9565b509392505050565b600082601f83011261284f5761284e612733565b5b813561285f8482602086016127f8565b91505092915050565b60006020828403121561287e5761287d6124eb565b5b600082013567ffffffffffffffff81111561289c5761289b6124f0565b5b6128a88482850161283a565b91505092915050565b600060a08301600083015184820360008601526128ce8282612688565b915050602083015184820360208601526128e88282612688565b915050604083015184820360408601526129028282612688565b91505060608301516129176060860182612619565b50608083015161292a6080860182612619565b508091505092915050565b6000602082019050818103600083015261294f81846128b1565b905092915050565b600081519050919050565b600082825260208201905092915050565b6000819050602082019050919050565b61298c81612515565b82525050565b600061299e8383612983565b60208301905092915050565b6000602082019050919050565b60006129c282612957565b6129cc8185612962565b93506129d783612973565b8060005b83811015612a085781516129ef8882612992565b97506129fa836129aa565b9250506001810190506129db565b5085935050505092915050565b60006020820190508181036000830152612a2f81846129b7565b905092915050565b612a40816125b6565b82525050565b6000602082019050612a5b6000830184612a37565b92915050565b600081519050919050565b600082825260208201905092915050565b6000819050602082019050919050565b6000606083016000830151612aa56000860182612619565b5060208301518482036020860152612abd8282612688565b9150506040830151612ad26040860182612619565b508091505092915050565b6000612ae98383612a8d565b905092915050565b6000602082019050919050565b6000612b0982612a61565b612b138185612a6c565b935083602082028501612b2585612a7d565b8060005b85811015612b615784840389528151612b428582612add565b9450612b4d83612af1565b925060208a01995050600181019050612b29565b50829750879550505050505092915050565b60006020820190508181036000830152612b8d8184612afe565b905092915050565b600081519050919050565b600082825260208201905092915050565b6000819050602082019050919050565b612bca81612580565b82525050565b6000606083016000830151612be86000860182612619565b5060208301518482036020860152612c008282612688565b9150506040830151612c156040860182612bc1565b508091505092915050565b6000612c2c8383612bd0565b905092915050565b6000602082019050919050565b6000612c4c82612b95565b612c568185612ba0565b935083602082028501612c6885612bb1565b8060005b85811015612ca45784840389528151612c858582612c20565b9450612c9083612c34565b925060208a01995050600181019050612c6c565b50829750879550505050505092915050565b60006020820190508181036000830152612cd08184612c41565b905092915050565b612ce181612515565b82525050565b6000602082019050612cfc6000830184612cd8565b92915050565b600067ffffffffffffffff821115612d1d57612d1c61273d565b5b602082029050919050565b600080fd5b6000612d40612d3b84612d02565b61279d565b90508060208402830185811115612d5a57612d59612d28565b5b835b81811015612da157803567ffffffffffffffff811115612d7f57612d7e612733565b5b808601612d8c898261283a565b85526020850194505050602081019050612d5c565b5050509392505050565b600082601f830112612dc057612dbf612733565b5b6004612dcd848285612d2d565b91505092915050565b60008060008060808587031215612df057612def6124eb565b5b6000612dfe878288016125d7565b945050602085013567ffffffffffffffff811115612e1f57612e1e6124f0565b5b612e2b87828801612dab565b935050604085013567ffffffffffffffff811115612e4c57612e4b6124f0565b5b612e588782880161283a565b925050606085013567ffffffffffffffff811115612e7957612e786124f0565b5b612e858782880161283a565b91505092959194509250565b600080600060608486031215612eaa57612ea96124eb565b5b6000612eb88682870161253e565b9350506020612ec9868287016125d7565b925050604084013567ffffffffffffffff811115612eea57612ee96124f0565b5b612ef68682870161283a565b9150509250925092565b600082825260208201905092915050565b6000612f1c82612628565b612f268185612f00565b9350612f36818560208601612644565b612f3f81612677565b840191505092915050565b600081519050919050565b600082825260208201905092915050565b6000819050602082019050919050565b6000612f828383612688565b905092915050565b6000602082019050919050565b6000612fa282612f4a565b612fac8185612f55565b935083602082028501612fbe85612f66565b8060005b85811015612ffa5784840389528151612fdb8582612f76565b9450612fe683612f8a565b925060208a01995050600181019050612fc2565b50829750879550505050505092915050565b600060808201905081810360008301526130268187612f11565b90506130356020830186612a37565b81810360408301526130478185612f11565b9050818103606083015261305b8184612f97565b905095945050505050565b60008060006060848603121561307f5761307e6124eb565b5b600084013567ffffffffffffffff81111561309d5761309c6124f0565b5b6130a98682870161283a565b935050602084013567ffffffffffffffff8111156130ca576130c96124f0565b5b6130d68682870161283a565b925050604084013567ffffffffffffffff8111156130f7576130f66124f0565b5b6131038682870161283a565b9150509250925092565b7f4e487b7100000000000000000000000000000000000000000000000000000000600052602260045260246000fd5b6000600282049050600182168061315457607f821691505b602082108114156131685761316761310d565b5b50919050565b600060208201905081810360008301526131888184612f11565b905092915050565b600081905092915050565b60006131a682612628565b6131b08185613190565b93506131c0818560208601612644565b80840191505092915050565b60006131d8828461319b565b915081905092915050565b60008190508160005260206000209050919050565b600081546132058161313c565b61320f8186612f00565b9450600182166000811461322a576001811461323c5761326f565b60ff198316865260208601935061326f565b613245856131e3565b60005b8381101561326757815481890152600182019150602081019050613248565b808801955050505b50505092915050565b6000602082019050818103600083015261329281846131f8565b905092915050565b7f4e487b7100000000000000000000000000000000000000000000000000000000600052601160045260246000fd5b60006132d4826125b6565b91506132df836125b6565b9250828210156132f2576132f161329a565b5b828203905092915050565b7f4e487b7100000000000000000000000000000000000000000000000000000000600052602160045260246000fd5b7f4e487b7100000000000000000000000000000000000000000000000000000000600052603260045260246000fd5b6000613366826125b6565b91507fffffffffffffffffffffffffffffffffffffffffffffffffffffffffffffffff8214156133995761339861329a565b5b600182019050919050565b60006133af826125b6565b91506133ba836125b6565b9250827fffffffffffffffffffffffffffffffffffffffffffffffffffffffffffffffff038211156133ef576133ee61329a565b5b828201905092915050565b600081546134078161313c565b6134118186613190565b9450600182166000811461342c576001811461343d57613470565b60ff19831686528186019350613470565b613446856131e3565b60005b8381101561346857815481890152600182019150602081019050613449565b838801955050505b50505092915050565b600061348582846133fa565b915081905092915050565b600060408201905081810360008301526134aa8185612f11565b90506134b96020830184612a37565b9392505050565b600060808201905081810360008301526134da8187612f11565b90506134e96020830186612a37565b81810360408301526134fb8185612f11565b905061350a6060830184612a37565b9594505050505056fe4a6566667265792050726573746f6e2042657a6f7320697320616e20416d65726963616e20656e7472657072656e6575722c206d656469612070726f70726965746f722c20696e766573746f722c20616e6420636f6d6d65726369616c20617374726f6e6175742e2048652069732074686520666f756e6465722c206578656375746976652063686169726d616e2c20616e6420666f726d657220707265736964656e7420616e642043454f206f6620416d617a6f6e456c6f6e205265657665204d75736b20465253206973206120627573696e657373206d61676e61746520616e6420696e766573746f722e2048652069732074686520666f756e6465722c2043454f20616e6420636869656620656e67696e656572206f66205370616365583b20616e67656c20696e766573746f722c2043454f20616e642070726f6475637420617263686974656374206f66205465736c612c20496e632e3b206f776e657220616e642043454f206f6620547769747465722c20496e632e3b20666f756e646572206f662054686520426f72696e6720436f6d70616e793b20636f2d666f756e646572206f66204e657572616c696e6b20616e64204f70656e41493b20616e6420707265736964656e74206f6620746865207068696c616e7468726f706963204d75736b20466f756e646174696f6e5361747961204e61726179616e61204e6164656c6c6120697320616e20496e6469616e2d416d65726963616e20627573696e657373206578656375746976652e20486520697320746865206578656375746976652063686169726d616e20616e642043454f206f66204d6963726f736f66742c2073756363656564696e672053746576652042616c6c6d657220696e20323031342061732043454f20616e64204a6f686e20572e2054686f6d70736f6e20696e20323032312061732063686169726d616e2e506176656c2056616c6572796576696368204475726f762069732061205275737369616e2d626f726e204672656e63682d456d697261746920656e7472657072656e6575722077686f206973206b6e6f776e20666f72206265696e672074686520666f756e646572206f662074686520736f6369616c206e6574776f726b696e67207369746520564b20616e642054656c656772616d204d657373656e6765722e2048652069732074686520796f756e6765722062726f74686572206f66204e696b6f6c6169204475726f762e4d61726b20456c6c696f74205a75636b65726265726720697320616e20416d65726963616e20627573696e657373206d61676e6174652c20696e7465726e657420656e7472657072656e6575722c20616e64207068696c616e7468726f706973742e204865206973206b6e6f776e20666f7220636f2d666f756e64696e672074686520736f6369616c206d6564696120776562736974652046616365626f6f6b20616e642069747320706172656e7420636f6d70616e79204d65746120506c6174666f726d732c206f66207768696368206865206973207468652063686169726d616e2c20636869656620657865637574697665206f6666696365722c20616e6420636f6e74726f6c6c696e67207368617265686f6c646572a26469706673582212205219a9e80ae9cdf7341b4de27c391e8f6c90ca590774c46e8cdc0c21dbe971fc64736f6c634300080900334a6566667265792050726573746f6e2042657a6f7320697320616e20416d65726963616e20656e7472657072656e6575722c206d656469612070726f70726965746f722c20696e766573746f722c20616e6420636f6d6d65726369616c20617374726f6e6175742e2048652069732074686520666f756e6465722c206578656375746976652063686169726d616e2c20616e6420666f726d657220707265736964656e7420616e642043454f206f6620416d617a6f6e456c6f6e205265657665204d75736b20465253206973206120627573696e657373206d61676e61746520616e6420696e766573746f722e2048652069732074686520666f756e6465722c2043454f20616e6420636869656620656e67696e656572206f66205370616365583b20616e67656c20696e766573746f722c2043454f20616e642070726f6475637420617263686974656374206f66205465736c612c20496e632e3b206f776e657220616e642043454f206f6620547769747465722c20496e632e3b20666f756e646572206f662054686520426f72696e6720436f6d70616e793b20636f2d666f756e646572206f66204e657572616c696e6b20616e64204f70656e41493b20616e6420707265736964656e74206f6620746865207068696c616e7468726f706963204d75736b20466f756e646174696f6e5361747961204e61726179616e61204e6164656c6c6120697320616e20496e6469616e2d416d65726963616e20627573696e657373206578656375746976652e20486520697320746865206578656375746976652063686169726d616e20616e642043454f206f66204d6963726f736f66742c2073756363656564696e672053746576652042616c6c6d657220696e20323031342061732043454f20616e64204a6f686e20572e2054686f6d70736f6e20696e20323032312061732063686169726d616e2e506176656c2056616c6572796576696368204475726f762069732061205275737369616e2d626f726e204672656e63682d456d697261746920656e7472657072656e6575722077686f206973206b6e6f776e20666f72206265696e672074686520666f756e646572206f662074686520736f6369616c206e6574776f726b696e67207369746520564b20616e642054656c656772616d204d657373656e6765722e2048652069732074686520796f756e6765722062726f74686572206f66204e696b6f6c6169204475726f762e4d61726b20456c6c696f74205a75636b65726265726720697320616e20416d65726963616e20627573696e657373206d61676e6174652c20696e7465726e657420656e7472657072656e6575722c20616e64207068696c616e7468726f706973742e204865206973206b6e6f776e20666f7220636f2d666f756e64696e672074686520736f6369616c206d6564696120776562736974652046616365626f6f6b20616e642069747320706172656e7420636f6d70616e79204d65746120506c6174666f726d732c206f66207768696368206865206973207468652063686169726d616e2c20636869656620657865637574697665206f6666696365722c20616e6420636f6e74726f6c6c696e67207368617265686f6c646572",
  "devdoc": {
    "kind": "dev",
    "methods": {},
    "version": 1
  },
  "userdoc": {
    "kind": "user",
    "methods": {
      "getOwner()": {
        "notice": "Getter Functions "
      }
    },
    "version": 1
  },
  "storageLayout": {
    "storage": [
      {
        "astId": 27,
        "contract": "contracts/Election.sol:Election",
        "label": "s_ellectionState",
        "offset": 0,
        "slot": "0",
        "type": "t_enum(ElectionState)24"
      },
      {
        "astId": 29,
        "contract": "contracts/Election.sol:Election",
        "label": "s_timeStamp",
        "offset": 0,
        "slot": "1",
        "type": "t_uint256"
      },
      {
        "astId": 31,
        "contract": "contracts/Election.sol:Election",
        "label": "s_interval",
        "offset": 0,
        "slot": "2",
        "type": "t_uint216"
      },
      {
        "astId": 33,
        "contract": "contracts/Election.sol:Election",
        "label": "s_lastTimeStamp",
        "offset": 0,
        "slot": "3",
        "type": "t_uint256"
      },
      {
        "astId": 38,
        "contract": "contracts/Election.sol:Election",
        "label": "s_admins",
        "offset": 0,
        "slot": "4",
        "type": "t_array(t_address)dyn_storage"
      },
      {
        "astId": 40,
        "contract": "contracts/Election.sol:Election",
        "label": "s_lastCondidateId",
        "offset": 0,
        "slot": "5",
        "type": "t_uint256"
      },
      {
        "astId": 42,
        "contract": "contracts/Election.sol:Election",
        "label": "s_electionId",
        "offset": 0,
        "slot": "6",
        "type": "t_uint256"
      },
      {
        "astId": 45,
        "contract": "contracts/Election.sol:Election",
        "label": "s_numOfCondidates",
        "offset": 0,
        "slot": "7",
        "type": "t_array(t_string_storage)dyn_storage"
      },
      {
        "astId": 50,
        "contract": "contracts/Election.sol:Election",
        "label": "users",
        "offset": 0,
        "slot": "8",
        "type": "t_mapping(t_address,t_struct(User)973_storage)"
      },
      {
        "astId": 55,
        "contract": "contracts/Election.sol:Election",
        "label": "candidate",
        "offset": 0,
        "slot": "9",
        "type": "t_mapping(t_string_memory_ptr,t_struct(Candidate)991_storage)"
      },
      {
        "astId": 60,
        "contract": "contracts/Election.sol:Election",
        "label": "election",
        "offset": 0,
        "slot": "10",
        "type": "t_mapping(t_uint256,t_struct(Elction)1010_storage)"
      },
      {
        "astId": 65,
        "contract": "contracts/Election.sol:Election",
        "label": "result",
        "offset": 0,
        "slot": "11",
        "type": "t_mapping(t_uint256,t_struct(Results)1020_storage)"
      }
    ],
    "types": {
      "t_address": {
        "encoding": "inplace",
        "label": "address",
        "numberOfBytes": "20"
      },
      "t_array(t_address)dyn_storage": {
        "base": "t_address",
        "encoding": "dynamic_array",
        "label": "address[]",
        "numberOfBytes": "32"
      },
      "t_array(t_string_storage)dyn_storage": {
        "base": "t_string_storage",
        "encoding": "dynamic_array",
        "label": "string[]",
        "numberOfBytes": "32"
      },
      "t_bool": {
        "encoding": "inplace",
        "label": "bool",
        "numberOfBytes": "1"
      },
      "t_enum(ElectionState)24": {
        "encoding": "inplace",
        "label": "enum Election.ElectionState",
        "numberOfBytes": "1"
      },
      "t_mapping(t_address,t_struct(User)973_storage)": {
        "encoding": "mapping",
        "key": "t_address",
        "label": "mapping(address => struct Structs.User)",
        "numberOfBytes": "32",
        "value": "t_struct(User)973_storage"
      },
      "t_mapping(t_string_memory_ptr,t_struct(Candidate)991_storage)": {
        "encoding": "mapping",
        "key": "t_string_memory_ptr",
        "label": "mapping(string => struct Structs.Candidate)",
        "numberOfBytes": "32",
        "value": "t_struct(Candidate)991_storage"
      },
      "t_mapping(t_string_memory_ptr,t_struct(CondidateVote)1013_storage)": {
        "encoding": "mapping",
        "key": "t_string_memory_ptr",
        "label": "mapping(string => struct Structs.CondidateVote)",
        "numberOfBytes": "32",
        "value": "t_struct(CondidateVote)1013_storage"
      },
      "t_mapping(t_uint256,t_struct(Elction)1010_storage)": {
        "encoding": "mapping",
        "key": "t_uint256",
        "label": "mapping(uint256 => struct Structs.Elction)",
        "numberOfBytes": "32",
        "value": "t_struct(Elction)1010_storage"
      },
      "t_mapping(t_uint256,t_struct(Results)1020_storage)": {
        "encoding": "mapping",
        "key": "t_uint256",
        "label": "mapping(uint256 => struct Structs.Results)",
        "numberOfBytes": "32",
        "value": "t_struct(Results)1020_storage"
      },
      "t_mapping(t_uint256,t_struct(UserVotes)980_storage)": {
        "encoding": "mapping",
        "key": "t_uint256",
        "label": "mapping(uint256 => struct Structs.UserVotes)",
        "numberOfBytes": "32",
        "value": "t_struct(UserVotes)980_storage"
      },
      "t_string_memory_ptr": {
        "encoding": "bytes",
        "label": "string",
        "numberOfBytes": "32"
      },
      "t_string_storage": {
        "encoding": "bytes",
        "label": "string",
        "numberOfBytes": "32"
      },
      "t_struct(Candidate)991_storage": {
        "encoding": "inplace",
        "label": "struct Structs.Candidate",
        "members": [
          {
            "astId": 982,
            "contract": "contracts/Election.sol:Election",
            "label": "condidateName",
            "offset": 0,
            "slot": "0",
            "type": "t_string_storage"
          },
          {
            "astId": 984,
            "contract": "contracts/Election.sol:Election",
            "label": "description",
            "offset": 0,
            "slot": "1",
            "type": "t_string_storage"
          },
          {
            "astId": 986,
            "contract": "contracts/Election.sol:Election",
            "label": "party",
            "offset": 0,
            "slot": "2",
            "type": "t_string_storage"
          },
          {
            "astId": 988,
            "contract": "contracts/Election.sol:Election",
            "label": "nominationNumber",
            "offset": 0,
            "slot": "3",
            "type": "t_uint256"
          },
          {
            "astId": 990,
            "contract": "contracts/Election.sol:Election",
            "label": "numberOfWins",
            "offset": 0,
            "slot": "4",
            "type": "t_uint256"
          }
        ],
        "numberOfBytes": "160"
      },
      "t_struct(CondidateVote)1013_storage": {
        "encoding": "inplace",
        "label": "struct Structs.CondidateVote",
        "members": [
          {
            "astId": 1012,
            "contract": "contracts/Election.sol:Election",
            "label": "numOfVotes",
            "offset": 0,
            "slot": "0",
            "type": "t_uint256"
          }
        ],
        "numberOfBytes": "32"
      },
      "t_struct(Elction)1010_storage": {
        "encoding": "inplace",
        "label": "struct Structs.Elction",
        "members": [
          {
            "astId": 993,
            "contract": "contracts/Election.sol:Election",
            "label": "electionId",
            "offset": 0,
            "slot": "0",
            "type": "t_uint256"
          },
          {
            "astId": 995,
            "contract": "contracts/Election.sol:Election",
            "label": "title",
            "offset": 0,
            "slot": "1",
            "type": "t_string_storage"
          },
          {
            "astId": 997,
            "contract": "contracts/Election.sol:Election",
            "label": "interval",
            "offset": 0,
            "slot": "2",
            "type": "t_uint256"
          },
          {
            "astId": 999,
            "contract": "contracts/Election.sol:Election",
            "label": "description",
            "offset": 0,
            "slot": "3",
            "type": "t_string_storage"
          },
          {
            "astId": 1001,
            "contract": "contracts/Election.sol:Election",
            "label": "isClose",
            "offset": 0,
            "slot": "4",
            "type": "t_uint256"
          },
          {
            "astId": 1004,
            "contract": "contracts/Election.sol:Election",
            "label": "condidateNames",
            "offset": 0,
            "slot": "5",
            "type": "t_array(t_string_storage)dyn_storage"
          },
          {
            "astId": 1009,
            "contract": "contracts/Election.sol:Election",
            "label": "votes",
            "offset": 0,
            "slot": "6",
            "type": "t_mapping(t_string_memory_ptr,t_struct(CondidateVote)1013_storage)"
          }
        ],
        "numberOfBytes": "224"
      },
      "t_struct(Results)1020_storage": {
        "encoding": "inplace",
        "label": "struct Structs.Results",
        "members": [
          {
            "astId": 1015,
            "contract": "contracts/Election.sol:Election",
            "label": "electionId",
            "offset": 0,
            "slot": "0",
            "type": "t_uint256"
          },
          {
            "astId": 1017,
            "contract": "contracts/Election.sol:Election",
            "label": "condidateName",
            "offset": 0,
            "slot": "1",
            "type": "t_string_storage"
          },
          {
            "astId": 1019,
            "contract": "contracts/Election.sol:Election",
            "label": "voteCount",
            "offset": 0,
            "slot": "2",
            "type": "t_uint256"
          }
        ],
        "numberOfBytes": "96"
      },
      "t_struct(User)973_storage": {
        "encoding": "inplace",
        "label": "struct Structs.User",
        "members": [
          {
            "astId": 965,
            "contract": "contracts/Election.sol:Election",
            "label": "id",
            "offset": 0,
            "slot": "0",
            "type": "t_address"
          },
          {
            "astId": 967,
            "contract": "contracts/Election.sol:Election",
            "label": "isValid",
            "offset": 20,
            "slot": "0",
            "type": "t_bool"
          },
          {
            "astId": 972,
            "contract": "contracts/Election.sol:Election",
            "label": "votes",
            "offset": 0,
            "slot": "1",
            "type": "t_mapping(t_uint256,t_struct(UserVotes)980_storage)"
          }
        ],
        "numberOfBytes": "64"
      },
      "t_struct(UserVotes)980_storage": {
        "encoding": "inplace",
        "label": "struct Structs.UserVotes",
        "members": [
          {
            "astId": 975,
            "contract": "contracts/Election.sol:Election",
            "label": "electionId",
            "offset": 0,
            "slot": "0",
            "type": "t_uint256"
          },
          {
            "astId": 977,
            "contract": "contracts/Election.sol:Election",
            "label": "candidateName",
            "offset": 0,
            "slot": "1",
            "type": "t_string_storage"
          },
          {
            "astId": 979,
            "contract": "contracts/Election.sol:Election",
            "label": "isVoted",
            "offset": 0,
            "slot": "2",
            "type": "t_bool"
          }
        ],
        "numberOfBytes": "96"
      },
      "t_uint216": {
        "encoding": "inplace",
        "label": "uint216",
        "numberOfBytes": "27"
      },
      "t_uint256": {
        "encoding": "inplace",
        "label": "uint256",
        "numberOfBytes": "32"
      }
    }
  }
}