{
  "address": "0xD93900c82E8809a0834A5071ea3BFa70DfEB0b82",
  "abi": [
    {
      "inputs": [
        {
          "internalType": "uint256",
          "name": "interval",
          "type": "uint256"
        }
      ],
      "stateMutability": "nonpayable",
      "type": "constructor"
    },
    {
      "inputs": [],
      "name": "getReminingTime",
      "outputs": [
        {
          "internalType": "uint256",
          "name": "",
          "type": "uint256"
        }
      ],
      "stateMutability": "view",
      "type": "function"
    }
  ],
  "transactionHash": "0x3d75b34ba017de30122cf4d885bd0bc5c07c2c043b2e9c26ee861314f14c041d",
  "args": [
    30
  ],
  "numDeployments": 1,
  "solcInputHash": "6b87ff920da03c266d5d6b7d2509b02e",
  "bytecode": "0x608060405234801561001057600080fd5b5060405161088d38038061088d8339818101604052810190610032919061025f565b42600081905550806001819055506100896040518060400160405280600c81526020017f626c6f636b2074696d65203a0000000000000000000000000000000000000000815250426100ba60201b6100bb1760201c565b6100b46040518060600160405280603581526020016108586035913961015c60201b6101571760201c565b50610386565b61015882826040516024016100d0929190610334565b6040516020818303038152906040527fb60e72cc000000000000000000000000000000000000000000000000000000007bffffffffffffffffffffffffffffffffffffffffffffffffffffffff19166020820180517bffffffffffffffffffffffffffffffffffffffffffffffffffffffff83818316178352505050506101fb60201b60201c565b5050565b6101f8816040516024016101709190610364565b6040516020818303038152906040527f41304fac000000000000000000000000000000000000000000000000000000007bffffffffffffffffffffffffffffffffffffffffffffffffffffffff19166020820180517bffffffffffffffffffffffffffffffffffffffffffffffffffffffff83818316178352505050506101fb60201b60201c565b50565b60008151905060006a636f6e736f6c652e6c6f679050602083016000808483855afa5050505050565b600080fd5b6000819050919050565b61023c81610229565b811461024757600080fd5b50565b60008151905061025981610233565b92915050565b60006020828403121561027557610274610224565b5b60006102838482850161024a565b91505092915050565b600081519050919050565b600082825260208201905092915050565b60005b838110156102c65780820151818401526020810190506102ab565b838111156102d5576000848401525b50505050565b6000601f19601f8301169050919050565b60006102f78261028c565b6103018185610297565b93506103118185602086016102a8565b61031a816102db565b840191505092915050565b61032e81610229565b82525050565b6000604082019050818103600083015261034e81856102ec565b905061035d6020830184610325565b9392505050565b6000602082019050818103600083015261037e81846102ec565b905092915050565b6104c3806103956000396000f3fe608060405234801561001057600080fd5b506004361061002b5760003560e01c8063ef6113a214610030575b600080fd5b61003861004e565b60405161004591906102d1565b60405180910390f35b600080600090505b60648110156100b25761009f816040518060400160405280600c81526020017f626c6f636b2074696d65203a0000000000000000000000000000000000000000815250426101f0565b80806100aa9061031b565b915050610056565b50600054905090565b61015382826040516024016100d19291906103fd565b6040516020818303038152906040527fb60e72cc000000000000000000000000000000000000000000000000000000007bffffffffffffffffffffffffffffffffffffffffffffffffffffffff19166020820180517bffffffffffffffffffffffffffffffffffffffffffffffffffffffff838183161783525050505061028f565b5050565b6101ed8160405160240161016b919061042d565b6040516020818303038152906040527f41304fac000000000000000000000000000000000000000000000000000000007bffffffffffffffffffffffffffffffffffffffffffffffffffffffff19166020820180517bffffffffffffffffffffffffffffffffffffffffffffffffffffffff838183161783525050505061028f565b50565b61028a8383836040516024016102089392919061044f565b6040516020818303038152906040527f37aa7d4c000000000000000000000000000000000000000000000000000000007bffffffffffffffffffffffffffffffffffffffffffffffffffffffff19166020820180517bffffffffffffffffffffffffffffffffffffffffffffffffffffffff838183161783525050505061028f565b505050565b60008151905060006a636f6e736f6c652e6c6f679050602083016000808483855afa5050505050565b6000819050919050565b6102cb816102b8565b82525050565b60006020820190506102e660008301846102c2565b92915050565b7f4e487b7100000000000000000000000000000000000000000000000000000000600052601160045260246000fd5b6000610326826102b8565b91507fffffffffffffffffffffffffffffffffffffffffffffffffffffffffffffffff821415610359576103586102ec565b5b600182019050919050565b600081519050919050565b600082825260208201905092915050565b60005b8381101561039e578082015181840152602081019050610383565b838111156103ad576000848401525b50505050565b6000601f19601f8301169050919050565b60006103cf82610364565b6103d9818561036f565b93506103e9818560208601610380565b6103f2816103b3565b840191505092915050565b6000604082019050818103600083015261041781856103c4565b905061042660208301846102c2565b9392505050565b6000602082019050818103600083015261044781846103c4565b905092915050565b600060608201905061046460008301866102c2565b818103602083015261047681856103c4565b905061048560408301846102c2565b94935050505056fea26469706673582212207bbdbb358f816dc2f5a291fb5f07a6d794769bd68ea27cf4c48217131e075bae64736f6c634300080900332d2d2d2d2d2d2d2d2d2d2d2d2d2d2d2d2d2d2d2d2d2d2d2d2d2d2d2d2d2d2d2d2d2d2d2d2d2d2d2d2d2d2d2d2d2d2d2d2d2d2d2d2d",
  "devdoc": {
    "kind": "dev",
    "methods": {},
    "version": 1
  },
  "userdoc": {
    "kind": "user",
    "methods": {},
    "version": 1
  },
  "storageLayout": {
    "storage": [
      {
        "astId": 4,
        "contract": "contracts/time.sol:Time",
        "label": "s_time",
        "offset": 0,
        "slot": "0",
        "type": "t_uint256"
      },
      {
        "astId": 6,
        "contract": "contracts/time.sol:Time",
        "label": "s_interval",
        "offset": 0,
        "slot": "1",
        "type": "t_uint256"
      }
    ],
    "types": {
      "t_uint256": {
        "encoding": "inplace",
        "label": "uint256",
        "numberOfBytes": "32"
      }
    }
  }
}